{
  "contractName": "DigitalIdentity",
  "abi": [
    {
      "anonymous": false,
      "inputs": [
        {
          "indexed": true,
          "internalType": "address",
          "name": "entity",
          "type": "address"
        },
        {
          "indexed": false,
          "internalType": "string",
          "name": "newIdentifier",
          "type": "string"
        }
      ],
      "name": "EntityChanged",
      "type": "event"
    },
    {
      "anonymous": false,
      "inputs": [
        {
          "indexed": true,
          "internalType": "address",
          "name": "entity",
          "type": "address"
        }
      ],
      "name": "EntityRemoved",
      "type": "event"
    },
    {
      "anonymous": false,
      "inputs": [
        {
          "indexed": true,
          "internalType": "address",
          "name": "entity",
          "type": "address"
        },
        {
          "indexed": false,
          "internalType": "string",
          "name": "identifier",
          "type": "string"
        }
      ],
      "name": "EntityVerified",
      "type": "event"
    },
    {
      "anonymous": false,
      "inputs": [
        {
          "indexed": true,
          "internalType": "address",
          "name": "previousOwner",
          "type": "address"
        },
        {
          "indexed": true,
          "internalType": "address",
          "name": "newOwner",
          "type": "address"
        }
      ],
      "name": "OwnershipTransferred",
      "type": "event"
    },
    {
      "inputs": [
        {
          "internalType": "string",
          "name": "newIdentifier",
          "type": "string"
        }
      ],
      "name": "changeEntity",
      "outputs": [],
      "stateMutability": "nonpayable",
      "type": "function"
    },
    {
      "inputs": [
        {
          "internalType": "address",
          "name": "",
          "type": "address"
        }
      ],
      "name": "entities",
      "outputs": [
        {
          "internalType": "bool",
          "name": "isVerified",
          "type": "bool"
        },
        {
          "internalType": "string",
          "name": "identifier",
          "type": "string"
        }
      ],
      "stateMutability": "view",
      "type": "function"
    },
    {
      "inputs": [
        {
          "internalType": "address",
          "name": "entityAddress",
          "type": "address"
        }
      ],
      "name": "getEntityIdentifier",
      "outputs": [
        {
          "internalType": "string",
          "name": "",
          "type": "string"
        }
      ],
      "stateMutability": "view",
      "type": "function"
    },
    {
      "inputs": [
        {
          "internalType": "address",
          "name": "entityAddress",
          "type": "address"
        }
      ],
      "name": "isVerified",
      "outputs": [
        {
          "internalType": "bool",
          "name": "",
          "type": "bool"
        }
      ],
      "stateMutability": "view",
      "type": "function"
    },
    {
      "inputs": [],
      "name": "owner",
      "outputs": [
        {
          "internalType": "address",
          "name": "",
          "type": "address"
        }
      ],
      "stateMutability": "view",
      "type": "function"
    },
    {
      "inputs": [],
      "name": "removeEntity",
      "outputs": [],
      "stateMutability": "nonpayable",
      "type": "function"
    },
    {
      "inputs": [],
      "name": "renounceOwnership",
      "outputs": [],
      "stateMutability": "nonpayable",
      "type": "function"
    },
    {
      "inputs": [
        {
          "internalType": "string",
          "name": "identifier",
          "type": "string"
        }
      ],
      "name": "requestVerification",
      "outputs": [],
      "stateMutability": "nonpayable",
      "type": "function"
    },
    {
      "inputs": [
        {
          "internalType": "address",
          "name": "newOwner",
          "type": "address"
        }
      ],
      "name": "transferOwnership",
      "outputs": [],
      "stateMutability": "nonpayable",
      "type": "function"
    },
    {
      "inputs": [
        {
          "internalType": "address",
          "name": "entityAddress",
          "type": "address"
        }
      ],
      "name": "verifyEntity",
      "outputs": [],
      "stateMutability": "nonpayable",
      "type": "function"
    }
  ],
  "bytecode": "0x608060405234801561000f575f80fd5b505f80546001600160a01b03191633178155610be690819061003090395ff3fe608060405234801561000f575f80fd5b506004361061009b575f3560e01c80638da5cb5b116100635780638da5cb5b146101015780639b0a7c281461011b578063b9209e331461013b578063ceea2e4a14610176578063f2fde38b14610189575f80fd5b80631d8ee48a1461009f5780636cbff42a146100c9578063715018a6146100de5780637ede1750146100e6578063828057ef146100ee575b5f80fd5b6100b26100ad366004610821565b61019c565b6040516100c0929190610891565b60405180910390f35b6100dc6100d73660046108c7565b610243565b005b6100dc61033b565b6100dc61036f565b6100dc6100fc366004610821565b610410565b5f546040516001600160a01b0390911681526020016100c0565b61012e610129366004610821565b6104fb565b6040516100c09190610972565b610166610149366004610821565b6001600160a01b03165f9081526001602052604090205460ff1690565b60405190151581526020016100c0565b6100dc6101843660046108c7565b61060d565b6100dc610197366004610821565b6106ee565b600160208190525f91825260409091208054918101805460ff909316926101c290610984565b80601f01602080910402602001604051908101604052809291908181526020018280546101ee90610984565b80156102395780601f1061021057610100808354040283529160200191610239565b820191905f5260205f20905b81548152906001019060200180831161021c57829003601f168201915b5050505050905082565b335f9081526001602052604090205460ff16156102a25760405162461bcd60e51b815260206004820152601860248201527722b73a34ba3c9030b63932b0b23c903b32b934b334b2b21760411b60448201526064015b60405180910390fd5b5f8151116102f25760405162461bcd60e51b815260206004820152601b60248201527f4964656e7469666965722063616e6e6f7420626520656d7074792e00000000006044820152606401610299565b6040805180820182525f8082526020808301858152338352600191829052939091208251815460ff19169015151781559251919291908201906103359082610a0a565b50505050565b5f546001600160a01b031633146103645760405162461bcd60e51b815260040161029990610ac6565b61036d5f610788565b565b335f908152600160208190526040822001805461038b90610984565b9050116103aa5760405162461bcd60e51b815260040161029990610afb565b335f9081526001602081905260408220805460ff1916815591906103d0908301826107d7565b50506103d93390565b6001600160a01b03167f66baa8598dad476a7a23c2c39a3c9ea353a313b8050f5f2ff7df3121abe1f98360405160405180910390a2565b5f546001600160a01b031633146104395760405162461bcd60e51b815260040161029990610ac6565b6001600160a01b0381165f9081526001602052604090205460ff161561049c5760405162461bcd60e51b815260206004820152601860248201527722b73a34ba3c9030b63932b0b23c903b32b934b334b2b21760411b6044820152606401610299565b6001600160a01b0381165f81815260016020819052604091829020805460ff19168217815591517f09e15521673c72c5da6f25c317119d5244eecc32801acf5c344c0b3335d81720926104f0920190610b2b565b60405180910390a250565b6001600160a01b0381165f9081526001602052604090205460609060ff168061054857506001600160a01b0382165f908152600160208190526040822001805461054490610984565b9050115b6105645760405162461bcd60e51b815260040161029990610afb565b6001600160a01b0382165f90815260016020819052604090912001805461058a90610984565b80601f01602080910402602001604051908101604052809291908181526020018280546105b690610984565b80156106015780601f106105d857610100808354040283529160200191610601565b820191905f5260205f20905b8154815290600101906020018083116105e457829003601f168201915b50505050509050919050565b5f81511161065d5760405162461bcd60e51b815260206004820152601f60248201527f4e6577206964656e7469666965722063616e6e6f7420626520656d7074792e006044820152606401610299565b335f908152600160208190526040822001805461067990610984565b9050116106985760405162461bcd60e51b815260040161029990610afb565b335f908152600160208190526040909120016106b48282610a0a565b50336001600160a01b03167f374b5efbb5d7dcbcea4b2a41d4cac6e221a8fd75c7092e6e933789f38941a044826040516104f09190610972565b5f546001600160a01b031633146107175760405162461bcd60e51b815260040161029990610ac6565b6001600160a01b03811661077c5760405162461bcd60e51b815260206004820152602660248201527f4f776e61626c653a206e6577206f776e657220697320746865207a65726f206160448201526564647265737360d01b6064820152608401610299565b61078581610788565b50565b5f80546001600160a01b038381166001600160a01b0319831681178455604051919092169283917f8be0079c531659141344cd1fd0a4f28419497f9722a3daafe3b4186f6b6457e09190a35050565b5080546107e390610984565b5f825580601f106107f2575050565b601f0160209004905f5260205f209081019061078591905b8082111561081d575f815560010161080a565b5090565b5f60208284031215610831575f80fd5b81356001600160a01b0381168114610847575f80fd5b9392505050565b5f81518084525f5b8181101561087257602081850181015186830182015201610856565b505f602082860101526020601f19601f83011685010191505092915050565b8215158152604060208201525f6108ab604083018461084e565b949350505050565b634e487b7160e01b5f52604160045260245ffd5b5f602082840312156108d7575f80fd5b813567ffffffffffffffff808211156108ee575f80fd5b818401915084601f830112610901575f80fd5b813581811115610913576109136108b3565b604051601f8201601f19908116603f0116810190838211818310171561093b5761093b6108b3565b81604052828152876020848701011115610953575f80fd5b826020860160208301375f928101602001929092525095945050505050565b602081525f610847602083018461084e565b600181811c9082168061099857607f821691505b6020821081036109b657634e487b7160e01b5f52602260045260245ffd5b50919050565b601f821115610a05575f81815260208120601f850160051c810160208610156109e25750805b601f850160051c820191505b81811015610a01578281556001016109ee565b5050505b505050565b815167ffffffffffffffff811115610a2457610a246108b3565b610a3881610a328454610984565b846109bc565b602080601f831160018114610a6b575f8415610a545750858301515b5f19600386901b1c1916600185901b178555610a01565b5f85815260208120601f198616915b82811015610a9957888601518255948401946001909101908401610a7a565b5085821015610ab657878501515f19600388901b60f8161c191681555b5050505050600190811b01905550565b6020808252818101527f4f776e61626c653a2063616c6c6572206973206e6f7420746865206f776e6572604082015260600190565b60208082526016908201527522b73a34ba3c903237b2b9903737ba1032bc34b9ba1760511b604082015260600190565b5f60208083525f8454610b3d81610984565b8084870152604060018084165f8114610b5d5760018114610b7757610ba2565b60ff1985168984015283151560051b890183019550610ba2565b895f52865f205f5b85811015610b9a5781548b8201860152908301908801610b7f565b8a0184019650505b50939897505050505050505056fea26469706673582212208f2094d7f494219101dc45a95c89a809e1274208c17792cce49a2cf444745d8964736f6c63430008140033",
  "source": "// SPDX-License-Identifier: MIT\r\npragma solidity >=0.8.18 <0.8.28;\r\n\r\nimport {Ownable} from \"./utils/Ownable.sol\";\r\n\r\ncontract DigitalIdentity is Ownable {\r\n    struct Entity {\r\n        bool isVerified;\r\n        string identifier;\r\n    }\r\n\r\n    mapping(address => Entity) public entities;\r\n\r\n    event EntityVerified(address indexed entity, string identifier);\r\n    event EntityChanged(address indexed entity, string newIdentifier);\r\n    event EntityRemoved(address indexed entity);\r\n\r\n    function requestVerification(string memory identifier) public {\r\n        require(!entities[_msgSender()].isVerified, \"Entity already verified.\");\r\n        require(bytes(identifier).length > 0, \"Identifier cannot be empty.\");\r\n\r\n        entities[_msgSender()] = Entity(false, identifier);\r\n    }\r\n\r\n    function verifyEntity(address entityAddress) public onlyOwner {\r\n        require(!entities[entityAddress].isVerified, \"Entity already verified.\");\r\n\r\n        entities[entityAddress].isVerified = true;\r\n\r\n        emit EntityVerified(entityAddress, entities[entityAddress].identifier);\r\n    }\r\n\r\n    function isVerified(address entityAddress) public view returns (bool) {\r\n        return entities[entityAddress].isVerified;\r\n    }\r\n\r\n    function getEntityIdentifier(address entityAddress) public view returns (string memory) {\r\n        require(entities[entityAddress].isVerified || bytes(entities[entityAddress].identifier).length > 0, \"Entity does not exist.\");\r\n        return entities[entityAddress].identifier;\r\n    }\r\n\r\n    function changeEntity(string memory newIdentifier) public {\r\n        require(bytes(newIdentifier).length > 0, \"New identifier cannot be empty.\");\r\n        require(bytes(entities[_msgSender()].identifier).length > 0, \"Entity does not exist.\");\r\n        \r\n        entities[_msgSender()].identifier = newIdentifier;\r\n        emit EntityChanged(_msgSender(), newIdentifier);\r\n    }\r\n\r\n    function removeEntity() public {\r\n        require(bytes(entities[_msgSender()].identifier).length > 0, \"Entity does not exist.\");\r\n\r\n        delete entities[_msgSender()];\r\n        emit EntityRemoved(_msgSender());\r\n    }\r\n}\r\n",
  "sourcePath": "C:\\Users\\Ankit Kumar\\Desktop\\Hack\\XTech\\contracts\\DigitalIdentity.sol",
  "compiler": {
    "name": "solc",
    "version": "0.8.20+commit.a1b79de6.Emscripten.clang"
  },
  "schemaVersion": "2.0.1",
  "updatedAt": "2024-10-07T22:16:12.285Z"
}