{
  "contractName": "DigitalIdentity",
  "abi": [
    {
      "anonymous": false,
      "inputs": [
        {
          "indexed": true,
          "internalType": "address",
          "name": "entity",
          "type": "address"
        },
        {
          "indexed": false,
          "internalType": "string",
          "name": "identifier",
          "type": "string"
        }
      ],
      "name": "EntityVerified",
      "type": "event"
    },
    {
      "anonymous": false,
      "inputs": [
        {
          "indexed": true,
          "internalType": "address",
          "name": "previousOwner",
          "type": "address"
        },
        {
          "indexed": true,
          "internalType": "address",
          "name": "newOwner",
          "type": "address"
        }
      ],
      "name": "OwnershipTransferred",
      "type": "event"
    },
    {
      "inputs": [
        {
          "internalType": "address",
          "name": "",
          "type": "address"
        }
      ],
      "name": "entities",
      "outputs": [
        {
          "internalType": "bool",
          "name": "isVerified",
          "type": "bool"
        },
        {
          "internalType": "string",
          "name": "identifier",
          "type": "string"
        }
      ],
      "stateMutability": "view",
      "type": "function"
    },
    {
      "inputs": [
        {
          "internalType": "address",
          "name": "entityAddress",
          "type": "address"
        }
      ],
      "name": "isVerified",
      "outputs": [
        {
          "internalType": "bool",
          "name": "",
          "type": "bool"
        }
      ],
      "stateMutability": "view",
      "type": "function"
    },
    {
      "inputs": [],
      "name": "owner",
      "outputs": [
        {
          "internalType": "address",
          "name": "",
          "type": "address"
        }
      ],
      "stateMutability": "view",
      "type": "function"
    },
    {
      "inputs": [],
      "name": "renounceOwnership",
      "outputs": [],
      "stateMutability": "nonpayable",
      "type": "function"
    },
    {
      "inputs": [
        {
          "internalType": "string",
          "name": "identifier",
          "type": "string"
        }
      ],
      "name": "requestVerification",
      "outputs": [],
      "stateMutability": "nonpayable",
      "type": "function"
    },
    {
      "inputs": [
        {
          "internalType": "address",
          "name": "newOwner",
          "type": "address"
        }
      ],
      "name": "transferOwnership",
      "outputs": [],
      "stateMutability": "nonpayable",
      "type": "function"
    },
    {
      "inputs": [
        {
          "internalType": "address",
          "name": "entityAddress",
          "type": "address"
        }
      ],
      "name": "verifyEntity",
      "outputs": [],
      "stateMutability": "nonpayable",
      "type": "function"
    }
  ],
  "bytecode": "0x608060405234801561000f575f80fd5b506100193361001e565b61006d565b5f80546001600160a01b038381166001600160a01b0319831681178455604051919092169283917f8be0079c531659141344cd1fd0a4f28419497f9722a3daafe3b4186f6b6457e09190a35050565b61080a8061007a5f395ff3fe608060405234801561000f575f80fd5b506004361061007a575f3560e01c8063828057ef11610058578063828057ef146100c55780638da5cb5b146100d8578063b9209e33146100f2578063f2fde38b1461012d575f80fd5b80631d8ee48a1461007e5780636cbff42a146100a8578063715018a6146100bd575b5f80fd5b61009161008c366004610497565b610140565b60405161009f9291906104c4565b60405180910390f35b6100bb6100b636600461052d565b6101e7565b005b6100bb61028f565b6100bb6100d3366004610497565b6102c3565b5f546040516001600160a01b03909116815260200161009f565b61011d610100366004610497565b6001600160a01b03165f9081526001602052604090205460ff1690565b604051901515815260200161009f565b6100bb61013b366004610497565b6103ae565b600160208190525f91825260409091208054918101805460ff90931692610166906105d8565b80601f0160208091040260200160405190810160405280929190818152602001828054610192906105d8565b80156101dd5780601f106101b4576101008083540402835291602001916101dd565b820191905f5260205f20905b8154815290600101906020018083116101c057829003601f168201915b5050505050905082565b335f9081526001602052604090205460ff16156102465760405162461bcd60e51b815260206004820152601860248201527722b73a34ba3c9030b63932b0b23c903b32b934b334b2b21760411b60448201526064015b60405180910390fd5b6040805180820182525f8082526020808301858152338352600191829052939091208251815460ff1916901515178155925191929190820190610289908261065e565b50505050565b5f546001600160a01b031633146102b85760405162461bcd60e51b815260040161023d9061071a565b6102c15f610448565b565b5f546001600160a01b031633146102ec5760405162461bcd60e51b815260040161023d9061071a565b6001600160a01b0381165f9081526001602052604090205460ff161561034f5760405162461bcd60e51b815260206004820152601860248201527722b73a34ba3c9030b63932b0b23c903b32b934b334b2b21760411b604482015260640161023d565b6001600160a01b0381165f81815260016020819052604091829020805460ff19168217815591517f09e15521673c72c5da6f25c317119d5244eecc32801acf5c344c0b3335d81720926103a392019061074f565b60405180910390a250565b5f546001600160a01b031633146103d75760405162461bcd60e51b815260040161023d9061071a565b6001600160a01b03811661043c5760405162461bcd60e51b815260206004820152602660248201527f4f776e61626c653a206e6577206f776e657220697320746865207a65726f206160448201526564647265737360d01b606482015260840161023d565b61044581610448565b50565b5f80546001600160a01b038381166001600160a01b0319831681178455604051919092169283917f8be0079c531659141344cd1fd0a4f28419497f9722a3daafe3b4186f6b6457e09190a35050565b5f602082840312156104a7575f80fd5b81356001600160a01b03811681146104bd575f80fd5b9392505050565b82151581525f602060408184015283518060408501525f5b818110156104f8578581018301518582016060015282016104dc565b505f606082860101526060601f19601f830116850101925050509392505050565b634e487b7160e01b5f52604160045260245ffd5b5f6020828403121561053d575f80fd5b813567ffffffffffffffff80821115610554575f80fd5b818401915084601f830112610567575f80fd5b81358181111561057957610579610519565b604051601f8201601f19908116603f011681019083821181831017156105a1576105a1610519565b816040528281528760208487010111156105b9575f80fd5b826020860160208301375f928101602001929092525095945050505050565b600181811c908216806105ec57607f821691505b60208210810361060a57634e487b7160e01b5f52602260045260245ffd5b50919050565b601f821115610659575f81815260208120601f850160051c810160208610156106365750805b601f850160051c820191505b8181101561065557828155600101610642565b5050505b505050565b815167ffffffffffffffff81111561067857610678610519565b61068c8161068684546105d8565b84610610565b602080601f8311600181146106bf575f84156106a85750858301515b5f19600386901b1c1916600185901b178555610655565b5f85815260208120601f198616915b828110156106ed578886015182559484019460019091019084016106ce565b508582101561070a57878501515f19600388901b60f8161c191681555b5050505050600190811b01905550565b6020808252818101527f4f776e61626c653a2063616c6c6572206973206e6f7420746865206f776e6572604082015260600190565b5f60208083525f8454610761816105d8565b8084870152604060018084165f8114610781576001811461079b576107c6565b60ff1985168984015283151560051b8901830195506107c6565b895f52865f205f5b858110156107be5781548b82018601529083019088016107a3565b8a0184019650505b50939897505050505050505056fea2646970667358221220ed0e7ece0c7dd630b6385bc1f36b565dc72b9de5459ee25c305869070be8cf5c64736f6c63430008140033",
  "source": "// SPDX-License-Identifier: MIT\r\npragma solidity >=0.8.18 <0.8.28;\r\n\r\nimport {Ownable} from \"./utils/Ownable.sol\";\r\n\r\ncontract DigitalIdentity is Ownable {\r\n    struct Entity {\r\n        bool isVerified;\r\n        string identifier;\r\n    }\r\n\r\n    mapping(address => Entity) public entities;\r\n\r\n    event EntityVerified(address indexed entity, string identifier);\r\n\r\n    function requestVerification(string memory identifier) public {\r\n        require(!entities[msg.sender].isVerified, \"Entity already verified.\");\r\n        entities[msg.sender] = Entity(false, identifier);\r\n    }\r\n\r\n    function verifyEntity(address entityAddress) public onlyOwner {\r\n        require(!entities[entityAddress].isVerified, \"Entity already verified.\");\r\n\r\n        entities[entityAddress].isVerified = true;\r\n\r\n        emit EntityVerified(entityAddress, entities[entityAddress].identifier);\r\n    }\r\n\r\n    function isVerified(address entityAddress) public view returns (bool) {\r\n        return entities[entityAddress].isVerified;\r\n    }\r\n}\r\n",
  "sourcePath": "C:\\Users\\Ankit Kumar\\Desktop\\Hack\\XTech\\contracts\\DigitalIdentity.sol",
  "compiler": {
    "name": "solc",
    "version": "0.8.20+commit.a1b79de6.Emscripten.clang"
  },
  "schemaVersion": "2.0.1",
  "updatedAt": "2024-10-06T20:06:08.463Z"
}