{
  "contractName": "DigitalIdentity",
  "abi": [
    {
      "inputs": [],
      "stateMutability": "nonpayable",
      "type": "constructor"
    },
    {
      "inputs": [
        {
          "internalType": "address",
          "name": "owner",
          "type": "address"
        }
      ],
      "name": "OwnableInvalidOwner",
      "type": "error"
    },
    {
      "inputs": [
        {
          "internalType": "address",
          "name": "account",
          "type": "address"
        }
      ],
      "name": "OwnableUnauthorizedAccount",
      "type": "error"
    },
    {
      "anonymous": false,
      "inputs": [
        {
          "indexed": true,
          "internalType": "address",
          "name": "entity",
          "type": "address"
        },
        {
          "indexed": false,
          "internalType": "string",
          "name": "newIdentifier",
          "type": "string"
        }
      ],
      "name": "EntityChanged",
      "type": "event"
    },
    {
      "anonymous": false,
      "inputs": [
        {
          "indexed": true,
          "internalType": "address",
          "name": "entity",
          "type": "address"
        }
      ],
      "name": "EntityRemoved",
      "type": "event"
    },
    {
      "anonymous": false,
      "inputs": [
        {
          "indexed": true,
          "internalType": "address",
          "name": "entity",
          "type": "address"
        },
        {
          "indexed": false,
          "internalType": "string",
          "name": "identifier",
          "type": "string"
        }
      ],
      "name": "EntityVerified",
      "type": "event"
    },
    {
      "anonymous": false,
      "inputs": [
        {
          "indexed": true,
          "internalType": "address",
          "name": "previousOwner",
          "type": "address"
        },
        {
          "indexed": true,
          "internalType": "address",
          "name": "newOwner",
          "type": "address"
        }
      ],
      "name": "OwnershipTransferred",
      "type": "event"
    },
    {
      "inputs": [
        {
          "internalType": "string",
          "name": "newIdentifier",
          "type": "string"
        }
      ],
      "name": "changeEntity",
      "outputs": [],
      "stateMutability": "nonpayable",
      "type": "function"
    },
    {
      "inputs": [
        {
          "internalType": "address",
          "name": "",
          "type": "address"
        }
      ],
      "name": "entities",
      "outputs": [
        {
          "internalType": "bool",
          "name": "isVerified",
          "type": "bool"
        },
        {
          "internalType": "string",
          "name": "identifier",
          "type": "string"
        }
      ],
      "stateMutability": "view",
      "type": "function"
    },
    {
      "inputs": [
        {
          "internalType": "address",
          "name": "entityAddress",
          "type": "address"
        }
      ],
      "name": "getEntityIdentifier",
      "outputs": [
        {
          "internalType": "string",
          "name": "",
          "type": "string"
        }
      ],
      "stateMutability": "view",
      "type": "function"
    },
    {
      "inputs": [
        {
          "internalType": "address",
          "name": "entityAddress",
          "type": "address"
        }
      ],
      "name": "isVerified",
      "outputs": [
        {
          "internalType": "bool",
          "name": "",
          "type": "bool"
        }
      ],
      "stateMutability": "view",
      "type": "function"
    },
    {
      "inputs": [],
      "name": "owner",
      "outputs": [
        {
          "internalType": "address",
          "name": "",
          "type": "address"
        }
      ],
      "stateMutability": "view",
      "type": "function"
    },
    {
      "inputs": [],
      "name": "removeEntity",
      "outputs": [],
      "stateMutability": "nonpayable",
      "type": "function"
    },
    {
      "inputs": [],
      "name": "renounceOwnership",
      "outputs": [],
      "stateMutability": "nonpayable",
      "type": "function"
    },
    {
      "inputs": [
        {
          "internalType": "string",
          "name": "identifier",
          "type": "string"
        }
      ],
      "name": "requestVerification",
      "outputs": [],
      "stateMutability": "nonpayable",
      "type": "function"
    },
    {
      "inputs": [
        {
          "internalType": "address",
          "name": "newOwner",
          "type": "address"
        }
      ],
      "name": "transferOwnership",
      "outputs": [],
      "stateMutability": "nonpayable",
      "type": "function"
    },
    {
      "inputs": [
        {
          "internalType": "address",
          "name": "entityAddress",
          "type": "address"
        }
      ],
      "name": "verifyEntity",
      "outputs": [],
      "stateMutability": "nonpayable",
      "type": "function"
    }
  ],
  "bytecode": "0x608060405234801561000f575f80fd5b50338061003557604051631e4fbdf760e01b81525f600482015260240160405180910390fd5b61003e81610044565b50610093565b5f80546001600160a01b038381166001600160a01b0319831681178455604051919092169283917f8be0079c531659141344cd1fd0a4f28419497f9722a3daafe3b4186f6b6457e09190a35050565b610b3e806100a05f395ff3fe608060405234801561000f575f80fd5b506004361061009b575f3560e01c80638da5cb5b116100635780638da5cb5b146101015780639b0a7c281461011b578063b9209e331461013b578063ceea2e4a14610176578063f2fde38b14610189575f80fd5b80631d8ee48a1461009f5780636cbff42a146100c9578063715018a6146100de5780637ede1750146100e6578063828057ef146100ee575b5f80fd5b6100b26100ad3660046107ae565b61019c565b6040516100c092919061081e565b60405180910390f35b6100dc6100d7366004610854565b610243565b005b6100dc61033b565b6100dc61034e565b6100dc6100fc3660046107ae565b6103ef565b5f546040516001600160a01b0390911681526020016100c0565b61012e6101293660046107ae565b6104b9565b6040516100c091906108ff565b6101666101493660046107ae565b6001600160a01b03165f9081526001602052604090205460ff1690565b60405190151581526020016100c0565b6100dc610184366004610854565b6105cb565b6100dc6101973660046107ae565b6106ac565b600160208190525f91825260409091208054918101805460ff909316926101c290610911565b80601f01602080910402602001604051908101604052809291908181526020018280546101ee90610911565b80156102395780601f1061021057610100808354040283529160200191610239565b820191905f5260205f20905b81548152906001019060200180831161021c57829003601f168201915b5050505050905082565b335f9081526001602052604090205460ff16156102a25760405162461bcd60e51b815260206004820152601860248201527722b73a34ba3c9030b63932b0b23c903b32b934b334b2b21760411b60448201526064015b60405180910390fd5b5f8151116102f25760405162461bcd60e51b815260206004820152601b60248201527f4964656e7469666965722063616e6e6f7420626520656d7074792e00000000006044820152606401610299565b6040805180820182525f8082526020808301858152338352600191829052939091208251815460ff19169015151781559251919291908201906103359082610997565b50505050565b6103436106e9565b61034c5f610715565b565b335f908152600160208190526040822001805461036a90610911565b9050116103895760405162461bcd60e51b815260040161029990610a53565b335f9081526001602081905260408220805460ff1916815591906103af90830182610764565b50506103b83390565b6001600160a01b03167f66baa8598dad476a7a23c2c39a3c9ea353a313b8050f5f2ff7df3121abe1f98360405160405180910390a2565b6103f76106e9565b6001600160a01b0381165f9081526001602052604090205460ff161561045a5760405162461bcd60e51b815260206004820152601860248201527722b73a34ba3c9030b63932b0b23c903b32b934b334b2b21760411b6044820152606401610299565b6001600160a01b0381165f81815260016020819052604091829020805460ff19168217815591517f09e15521673c72c5da6f25c317119d5244eecc32801acf5c344c0b3335d81720926104ae920190610a83565b60405180910390a250565b6001600160a01b0381165f9081526001602052604090205460609060ff168061050657506001600160a01b0382165f908152600160208190526040822001805461050290610911565b9050115b6105225760405162461bcd60e51b815260040161029990610a53565b6001600160a01b0382165f90815260016020819052604090912001805461054890610911565b80601f016020809104026020016040519081016040528092919081815260200182805461057490610911565b80156105bf5780601f10610596576101008083540402835291602001916105bf565b820191905f5260205f20905b8154815290600101906020018083116105a257829003601f168201915b50505050509050919050565b5f81511161061b5760405162461bcd60e51b815260206004820152601f60248201527f4e6577206964656e7469666965722063616e6e6f7420626520656d7074792e006044820152606401610299565b335f908152600160208190526040822001805461063790610911565b9050116106565760405162461bcd60e51b815260040161029990610a53565b335f908152600160208190526040909120016106728282610997565b50336001600160a01b03167f374b5efbb5d7dcbcea4b2a41d4cac6e221a8fd75c7092e6e933789f38941a044826040516104ae91906108ff565b6106b46106e9565b6001600160a01b0381166106dd57604051631e4fbdf760e01b81525f6004820152602401610299565b6106e681610715565b50565b5f546001600160a01b0316331461034c5760405163118cdaa760e01b8152336004820152602401610299565b5f80546001600160a01b038381166001600160a01b0319831681178455604051919092169283917f8be0079c531659141344cd1fd0a4f28419497f9722a3daafe3b4186f6b6457e09190a35050565b50805461077090610911565b5f825580601f1061077f575050565b601f0160209004905f5260205f20908101906106e691905b808211156107aa575f8155600101610797565b5090565b5f602082840312156107be575f80fd5b81356001600160a01b03811681146107d4575f80fd5b9392505050565b5f81518084525f5b818110156107ff576020818501810151868301820152016107e3565b505f602082860101526020601f19601f83011685010191505092915050565b8215158152604060208201525f61083860408301846107db565b949350505050565b634e487b7160e01b5f52604160045260245ffd5b5f60208284031215610864575f80fd5b813567ffffffffffffffff8082111561087b575f80fd5b818401915084601f83011261088e575f80fd5b8135818111156108a0576108a0610840565b604051601f8201601f19908116603f011681019083821181831017156108c8576108c8610840565b816040528281528760208487010111156108e0575f80fd5b826020860160208301375f928101602001929092525095945050505050565b602081525f6107d460208301846107db565b600181811c9082168061092557607f821691505b60208210810361094357634e487b7160e01b5f52602260045260245ffd5b50919050565b601f821115610992575f81815260208120601f850160051c8101602086101561096f5750805b601f850160051c820191505b8181101561098e5782815560010161097b565b5050505b505050565b815167ffffffffffffffff8111156109b1576109b1610840565b6109c5816109bf8454610911565b84610949565b602080601f8311600181146109f8575f84156109e15750858301515b5f19600386901b1c1916600185901b17855561098e565b5f85815260208120601f198616915b82811015610a2657888601518255948401946001909101908401610a07565b5085821015610a4357878501515f19600388901b60f8161c191681555b5050505050600190811b01905550565b60208082526016908201527522b73a34ba3c903237b2b9903737ba1032bc34b9ba1760511b604082015260600190565b5f60208083525f8454610a9581610911565b8084870152604060018084165f8114610ab55760018114610acf57610afa565b60ff1985168984015283151560051b890183019550610afa565b895f52865f205f5b85811015610af25781548b8201860152908301908801610ad7565b8a0184019650505b50939897505050505050505056fea26469706673582212209efbf33e89c1b8aa36d300187f438a2bb1544f1eea554eba74fe75d84350bd5a64736f6c63430008140033",
  "source": "// SPDX-License-Identifier: MIT\r\npragma solidity >=0.8.18 <0.8.28;\r\n\r\nimport {Ownable} from \"./utils/Ownable.sol\";\r\n\r\ncontract DigitalIdentity is Ownable {\r\n    struct Entity {\r\n        bool isVerified;\r\n        string identifier;\r\n    }\r\n\r\n    mapping(address => Entity) public entities;\r\n\r\n    event EntityVerified(address indexed entity, string identifier);\r\n    event EntityChanged(address indexed entity, string newIdentifier);\r\n    event EntityRemoved(address indexed entity);\r\n    \r\n    constructor() Ownable(msg.sender) {}\r\n\r\n    function requestVerification(string memory identifier) public {\r\n        require(!entities[_msgSender()].isVerified, \"Entity already verified.\");\r\n        require(bytes(identifier).length > 0, \"Identifier cannot be empty.\");\r\n\r\n        entities[_msgSender()] = Entity(false, identifier);\r\n    }\r\n\r\n    function verifyEntity(address entityAddress) public onlyOwner {\r\n        require(!entities[entityAddress].isVerified, \"Entity already verified.\");\r\n\r\n        entities[entityAddress].isVerified = true;\r\n\r\n        emit EntityVerified(entityAddress, entities[entityAddress].identifier);\r\n    }\r\n\r\n    function isVerified(address entityAddress) public view returns (bool) {\r\n        return entities[entityAddress].isVerified;\r\n    }\r\n\r\n    function getEntityIdentifier(address entityAddress) public view returns (string memory) {\r\n        require(entities[entityAddress].isVerified || bytes(entities[entityAddress].identifier).length > 0, \"Entity does not exist.\");\r\n        return entities[entityAddress].identifier;\r\n    }\r\n\r\n    function changeEntity(string memory newIdentifier) public {\r\n        require(bytes(newIdentifier).length > 0, \"New identifier cannot be empty.\");\r\n        require(bytes(entities[_msgSender()].identifier).length > 0, \"Entity does not exist.\");\r\n        \r\n        entities[_msgSender()].identifier = newIdentifier;\r\n        emit EntityChanged(_msgSender(), newIdentifier);\r\n    }\r\n\r\n    function removeEntity() public {\r\n        require(bytes(entities[_msgSender()].identifier).length > 0, \"Entity does not exist.\");\r\n\r\n        delete entities[_msgSender()];\r\n        emit EntityRemoved(_msgSender());\r\n    }\r\n}\r\n",
  "sourcePath": "C:\\Users\\Ankit Kumar\\Desktop\\Hack\\XTech\\contracts\\DigitalIdentity.sol",
  "compiler": {
    "name": "solc",
    "version": "0.8.20+commit.a1b79de6.Emscripten.clang"
  },
  "schemaVersion": "2.0.1",
  "updatedAt": "2024-10-08T06:48:17.103Z"
}