{
  "contractName": "Market",
  "abi": [
    {
      "inputs": [
        {
          "internalType": "address",
          "name": "_realEstateNFT",
          "type": "address"
        },
        {
          "internalType": "address",
          "name": "_realEstateToken",
          "type": "address"
        },
        {
          "internalType": "address",
          "name": "digitalIdentity_",
          "type": "address"
        }
      ],
      "stateMutability": "nonpayable",
      "type": "constructor"
    },
    {
      "anonymous": false,
      "inputs": [
        {
          "indexed": false,
          "internalType": "uint256",
          "name": "tokenId",
          "type": "uint256"
        },
        {
          "indexed": false,
          "internalType": "address",
          "name": "seller",
          "type": "address"
        },
        {
          "indexed": false,
          "internalType": "uint256",
          "name": "price",
          "type": "uint256"
        }
      ],
      "name": "AssetListed",
      "type": "event"
    },
    {
      "anonymous": false,
      "inputs": [
        {
          "indexed": false,
          "internalType": "uint256",
          "name": "tokenId",
          "type": "uint256"
        },
        {
          "indexed": false,
          "internalType": "address",
          "name": "buyer",
          "type": "address"
        },
        {
          "indexed": false,
          "internalType": "uint256",
          "name": "price",
          "type": "uint256"
        }
      ],
      "name": "AssetSold",
      "type": "event"
    },
    {
      "inputs": [
        {
          "internalType": "uint256",
          "name": "listingIndex",
          "type": "uint256"
        }
      ],
      "name": "buyAsset",
      "outputs": [],
      "stateMutability": "nonpayable",
      "type": "function"
    },
    {
      "inputs": [],
      "name": "digitalIdentity",
      "outputs": [
        {
          "internalType": "contract DigitalIdentity",
          "name": "",
          "type": "address"
        }
      ],
      "stateMutability": "view",
      "type": "function"
    },
    {
      "inputs": [],
      "name": "getAllListings",
      "outputs": [
        {
          "components": [
            {
              "internalType": "uint256",
              "name": "tokenId",
              "type": "uint256"
            },
            {
              "internalType": "address",
              "name": "seller",
              "type": "address"
            },
            {
              "internalType": "uint256",
              "name": "price",
              "type": "uint256"
            }
          ],
          "internalType": "struct Market.Listing[]",
          "name": "",
          "type": "tuple[]"
        }
      ],
      "stateMutability": "view",
      "type": "function"
    },
    {
      "inputs": [],
      "name": "getAllSoldAssets",
      "outputs": [
        {
          "components": [
            {
              "internalType": "uint256",
              "name": "tokenId",
              "type": "uint256"
            },
            {
              "internalType": "address",
              "name": "buyer",
              "type": "address"
            },
            {
              "internalType": "uint256",
              "name": "price",
              "type": "uint256"
            }
          ],
          "internalType": "struct Market.SoldAsset[]",
          "name": "",
          "type": "tuple[]"
        }
      ],
      "stateMutability": "view",
      "type": "function"
    },
    {
      "inputs": [
        {
          "internalType": "uint256",
          "name": "index",
          "type": "uint256"
        }
      ],
      "name": "getListingById",
      "outputs": [
        {
          "components": [
            {
              "internalType": "uint256",
              "name": "tokenId",
              "type": "uint256"
            },
            {
              "internalType": "address",
              "name": "seller",
              "type": "address"
            },
            {
              "internalType": "uint256",
              "name": "price",
              "type": "uint256"
            }
          ],
          "internalType": "struct Market.Listing",
          "name": "",
          "type": "tuple"
        }
      ],
      "stateMutability": "view",
      "type": "function"
    },
    {
      "inputs": [
        {
          "internalType": "uint256",
          "name": "index",
          "type": "uint256"
        }
      ],
      "name": "getSoldAssetById",
      "outputs": [
        {
          "components": [
            {
              "internalType": "uint256",
              "name": "tokenId",
              "type": "uint256"
            },
            {
              "internalType": "address",
              "name": "buyer",
              "type": "address"
            },
            {
              "internalType": "uint256",
              "name": "price",
              "type": "uint256"
            }
          ],
          "internalType": "struct Market.SoldAsset",
          "name": "",
          "type": "tuple"
        }
      ],
      "stateMutability": "view",
      "type": "function"
    },
    {
      "inputs": [
        {
          "internalType": "uint256",
          "name": "tokenId",
          "type": "uint256"
        },
        {
          "internalType": "uint256",
          "name": "price",
          "type": "uint256"
        }
      ],
      "name": "listAsset",
      "outputs": [],
      "stateMutability": "nonpayable",
      "type": "function"
    },
    {
      "inputs": [
        {
          "internalType": "uint256",
          "name": "",
          "type": "uint256"
        }
      ],
      "name": "listings",
      "outputs": [
        {
          "internalType": "uint256",
          "name": "tokenId",
          "type": "uint256"
        },
        {
          "internalType": "address",
          "name": "seller",
          "type": "address"
        },
        {
          "internalType": "uint256",
          "name": "price",
          "type": "uint256"
        }
      ],
      "stateMutability": "view",
      "type": "function"
    },
    {
      "inputs": [],
      "name": "realEstateNFT",
      "outputs": [
        {
          "internalType": "contract RealEstateAsset",
          "name": "",
          "type": "address"
        }
      ],
      "stateMutability": "view",
      "type": "function"
    },
    {
      "inputs": [],
      "name": "realEstateToken",
      "outputs": [
        {
          "internalType": "contract RealEstateToken",
          "name": "",
          "type": "address"
        }
      ],
      "stateMutability": "view",
      "type": "function"
    },
    {
      "inputs": [
        {
          "internalType": "uint256",
          "name": "index",
          "type": "uint256"
        }
      ],
      "name": "removeListing",
      "outputs": [],
      "stateMutability": "nonpayable",
      "type": "function"
    },
    {
      "inputs": [
        {
          "internalType": "uint256",
          "name": "",
          "type": "uint256"
        }
      ],
      "name": "soldAssets",
      "outputs": [
        {
          "internalType": "uint256",
          "name": "tokenId",
          "type": "uint256"
        },
        {
          "internalType": "address",
          "name": "buyer",
          "type": "address"
        },
        {
          "internalType": "uint256",
          "name": "price",
          "type": "uint256"
        }
      ],
      "stateMutability": "view",
      "type": "function"
    }
  ],
  "bytecode": "0x608060405234801561000f575f80fd5b50604051610f3b380380610f3b83398101604081905261002e91610088565b5f80546001600160a01b03199081166001600160a01b0393841617909155600180548216948316949094179093556002805490931691161790556100c8565b80516001600160a01b0381168114610083575f80fd5b919050565b5f805f6060848603121561009a575f80fd5b6100a38461006d565b92506100b16020850161006d565b91506100bf6040850161006d565b90509250925092565b610e66806100d55f395ff3fe608060405234801561000f575f80fd5b50600436106100b1575f3560e01c80637bad9a3e1161006e5780637bad9a3e14610159578063a8b527bb1461016c578063ae73ccec1461017e578063c361942914610193578063d4e9f951146101c9578063de74e57b146101dc575f80fd5b8063110d35b8146100b5578063419325b7146100ca578063479ad4c3146100f35780634f85310f146101065780635d6d0bda14610119578063708cfe491461012e575b5f80fd5b6100c86100c3366004610be5565b6101ef565b005b6100dd6100d8366004610be5565b610580565b6040516100ea9190610bfc565b60405180910390f35b6100c8610101366004610be5565b610626565b6100dd610114366004610be5565b61079b565b6101216107f9565b6040516100ea9190610c28565b600154610141906001600160a01b031681565b6040516001600160a01b0390911681526020016100ea565b6100c8610167366004610c92565b610879565b5f54610141906001600160a01b031681565b610186610b23565b6040516100ea9190610cb2565b6101a66101a1366004610be5565b610b99565b604080519384526001600160a01b039092166020840152908201526060016100ea565b600254610141906001600160a01b031681565b6101a66101ea366004610be5565b610bd6565b5f5460405163b9209e3360e01b81523360048201526001600160a01b039091169063b9209e3390602401602060405180830381865afa158015610234573d5f803e3d5ffd5b505050506040513d601f19601f820116820180604052508101906102589190610d10565b61027d5760405162461bcd60e51b815260040161027490610d36565b60405180910390fd5b5f6003828154811061029157610291610d7f565b5f918252602091829020604080516060810182526003939093029091018054835260018101546001600160a01b0390811694840194909452600290810154838301819052905491516370a0823160e01b81523360048201529294509216906370a0823190602401602060405180830381865afa158015610313573d5f803e3d5ffd5b505050506040513d601f19601f820116820180604052508101906103379190610d93565b101561037b5760405162461bcd60e51b815260206004820152601360248201527224b739bab33334b1b4b2b73a10333ab732399760691b6044820152606401610274565b60015460208201518251604051632142170760e11b81526001600160a01b03928316600482015233602482015260448101919091529116906342842e0e906064015f604051808303815f87803b1580156103d3575f80fd5b505af11580156103e5573d5f803e3d5ffd5b5050600254602084015160408086015190516323b872dd60e01b81523360048201526001600160a01b0392831660248201526044810191909152911692506323b872dd91506064016020604051808303815f875af1158015610449573d5f803e3d5ffd5b505050506040513d601f19601f8201168201806040525081019061046d9190610d10565b508051604080830151815192835233602084015282820152517f292a715744610be2d2c003ffa789368466ca91526353f24503687fb495dca8699181900360600190a16040805160608101825282518152336020820190815283830151928201928352600480546001810182555f9190915291517f8a35acfbc15ff81a39ae7d344fd709f28e8600b4aa8c65c6b64bfe7fe36bd19b600390930292830155517f8a35acfbc15ff81a39ae7d344fd709f28e8600b4aa8c65c6b64bfe7fe36bd19c820180546001600160a01b0319166001600160a01b0390921691909117905590517f8a35acfbc15ff81a39ae7d344fd709f28e8600b4aa8c65c6b64bfe7fe36bd19d9091015561057c82610626565b5050565b6105aa60405180606001604052805f81526020015f6001600160a01b031681526020015f81525090565b60045482106105cb5760405162461bcd60e51b815260040161027490610daa565b600482815481106105de576105de610d7f565b5f9182526020918290206040805160608101825260039093029091018054835260018101546001600160a01b0316938301939093526002909201549181019190915292915050565b60035481106106475760405162461bcd60e51b815260040161027490610daa565b6003818154811061065a5761065a610d7f565b5f9182526020909120600390910201600101546001600160a01b031633146106d45760405162461bcd60e51b815260206004820152602760248201527f4f6e6c79207468652073656c6c65722063616e2072656d6f766520746865206c60448201526634b9ba34b7339760c91b6064820152608401610274565b600380546106e490600190610dd7565b815481106106f4576106f4610d7f565b905f5260205f2090600302016003828154811061071357610713610d7f565b5f91825260209091208254600392830290910190815560018084015490820180546001600160a01b0319166001600160a01b0390921691909117905560029283015492019190915580548061076a5761076a610df6565b5f8281526020812060035f19909301928302018181556001810180546001600160a01b031916905560020155905550565b6107c560405180606001604052805f81526020015f6001600160a01b031681526020015f81525090565b60035482106107e65760405162461bcd60e51b815260040161027490610daa565b600382815481106105de576105de610d7f565b60606004805480602002602001604051908101604052809291908181526020015f905b82821015610870575f8481526020908190206040805160608101825260038602909201805483526001808201546001600160a01b03168486015260029091015491830191909152908352909201910161081c565b50505050905090565b5f5460405163b9209e3360e01b81523360048201526001600160a01b039091169063b9209e3390602401602060405180830381865afa1580156108be573d5f803e3d5ffd5b505050506040513d601f19601f820116820180604052508101906108e29190610d10565b6108fe5760405162461bcd60e51b815260040161027490610d36565b6001546040516331a9108f60e11b81526004810184905233916001600160a01b031690636352211e90602401602060405180830381865afa158015610945573d5f803e3d5ffd5b505050506040513d601f19601f820116820180604052508101906109699190610e0a565b6001600160a01b0316146109ca5760405162461bcd60e51b815260206004820152602260248201527f4e6f206572657320656c2070726f706965746172696f2064656c206163746976604482015261379760f11b6064820152608401610274565b5f8111610a245760405162461bcd60e51b815260206004820152602260248201527f456c2070726563696f206465626520736572206d61796f722071756520636572604482015261379760f11b6064820152608401610274565b6040805160608082018352848252336020808401828152848601878152600380546001810182555f82905296517fc2575a0e9e593c00f959f8c92f12db2869c3395a3b0502d05e2516446f71f85b979091029687015590517fc2575a0e9e593c00f959f8c92f12db2869c3395a3b0502d05e2516446f71f85c860180546001600160a01b0319166001600160a01b03909216919091179055517fc2575a0e9e593c00f959f8c92f12db2869c3395a3b0502d05e2516446f71f85d909401939093558351868152928301529181018390527f476606c547e15093eee9f27111d27bfb5d4a751983dec28c9100eb7bb39b8db1910160405180910390a15050565b60606003805480602002602001604051908101604052809291908181526020015f9082821015610870575f8481526020908190206040805160608101825260038602909201805483526001808201546001600160a01b03168486015260029091015491830191909152908352909201910161081c565b60048181548110610ba8575f80fd5b5f9182526020909120600390910201805460018201546002909201549092506001600160a01b039091169083565b60038181548110610ba8575f80fd5b5f60208284031215610bf5575f80fd5b5035919050565b815181526020808301516001600160a01b03169082015260408083015190820152606081015b92915050565b602080825282518282018190525f9190848201906040850190845b81811015610c8657610c73838551805182526020808201516001600160a01b031690830152604090810151910152565b9284019260609290920191600101610c43565b50909695505050505050565b5f8060408385031215610ca3575f80fd5b50508035926020909101359150565b602080825282518282018190525f9190848201906040850190845b81811015610c8657610cfd838551805182526020808201516001600160a01b031690830152604090810151910152565b9284019260609290920191600101610ccd565b5f60208284031215610d20575f80fd5b81518015158114610d2f575f80fd5b9392505050565b60208082526029908201527f4f6e6c7920766572696669656420656e7469746965732063616e206372656174604082015268329030b9b9b2ba399760b91b606082015260800190565b634e487b7160e01b5f52603260045260245ffd5b5f60208284031215610da3575f80fd5b5051919050565b60208082526013908201527224b73232bc1037baba1037b3103930b733b29760691b604082015260600190565b81810381811115610c2257634e487b7160e01b5f52601160045260245ffd5b634e487b7160e01b5f52603160045260245ffd5b5f60208284031215610e1a575f80fd5b81516001600160a01b0381168114610d2f575f80fdfea264697066735822122031fe513d40ddd300dfc62bd03c4d63f0fef814c1b8a721bd0244e233ef7d8a8a64736f6c63430008140033",
  "source": "// SPDX-License-Identifier: MIT\r\npragma solidity >=0.8.18 <0.8.28;\r\n\r\nimport {RealEstateAsset} from \"./RealEstateAsset.sol\";\r\nimport {RealEstateToken} from \"./RealEstateToken.sol\";\r\nimport {DigitalIdentity} from \"./DigitalIdentity.sol\";\r\n\r\ncontract Market {\r\n    DigitalIdentity public digitalIdentity;\r\n\r\n    struct Listing {\r\n        uint256 tokenId;\r\n        address seller;\r\n        uint256 price;\r\n    }\r\n\r\n    struct SoldAsset {\r\n        uint256 tokenId;\r\n        address buyer;\r\n        uint256 price;\r\n    }\r\n\r\n    RealEstateAsset public realEstateNFT;\r\n    RealEstateToken public realEstateToken;\r\n    Listing[] public listings;\r\n    SoldAsset[] public soldAssets;\r\n\r\n    event AssetListed(uint256 tokenId, address seller, uint256 price);\r\n    event AssetSold(uint256 tokenId, address buyer, uint256 price);\r\n\r\n    constructor(address _realEstateNFT, address _realEstateToken, address digitalIdentity_) {\r\n        digitalIdentity = DigitalIdentity(digitalIdentity_);\r\n        realEstateNFT = RealEstateAsset(_realEstateNFT);\r\n        realEstateToken = RealEstateToken(_realEstateToken);\r\n    }\r\n\r\n    function getAllListings() public view returns (Listing[] memory) {\r\n        return listings;\r\n    }\r\n\r\n    function getListingById(uint256 index) public view returns (Listing memory) {\r\n        require(index < listings.length, \"Index out of range.\");\r\n        return listings[index];\r\n    }\r\n\r\n    function getAllSoldAssets() public view returns (SoldAsset[] memory) {\r\n        return soldAssets;\r\n    }\r\n\r\n    function getSoldAssetById(uint256 index) public view returns (SoldAsset memory) {\r\n        require(index < soldAssets.length, \"Index out of range.\");\r\n        return soldAssets[index];\r\n    }\r\n\r\n    function listAsset(uint256 tokenId, uint256 price) public {\r\n        require(digitalIdentity.isVerified(msg.sender), \"Only verified entities can create assets.\");\r\n        require(realEstateNFT.ownerOf(tokenId) == msg.sender, \"No eres el propietario del activo.\");\r\n        require(price > 0, \"El precio debe ser mayor que cero.\");\r\n\r\n        listings.push(Listing({\r\n            tokenId: tokenId,\r\n            seller: msg.sender,\r\n            price: price\r\n        }));\r\n\r\n        emit AssetListed(tokenId, msg.sender, price);\r\n    }\r\n\r\n    function buyAsset(uint256 listingIndex) public {\r\n        require(digitalIdentity.isVerified(msg.sender), \"Only verified entities can create assets.\");\r\n\r\n        Listing memory listing = listings[listingIndex];\r\n        require(realEstateToken.balanceOf(msg.sender) >= listing.price, \"Insufficient funds.\");\r\n        \r\n        realEstateNFT.safeTransferFrom(listing.seller, msg.sender, listing.tokenId);\r\n        \r\n        realEstateToken.transferFrom(msg.sender, listing.seller, listing.price);\r\n\r\n        emit AssetSold(listing.tokenId, msg.sender, listing.price);\r\n        \r\n        soldAssets.push(SoldAsset({\r\n            tokenId: listing.tokenId,\r\n            buyer: msg.sender,\r\n            price: listing.price\r\n        }));\r\n\r\n        removeListing(listingIndex);\r\n    }\r\n\r\n    function removeListing(uint256 index) public {\r\n        require(index < listings.length, \"Index out of range.\");\r\n        require(msg.sender == listings[index].seller, \"Only the seller can remove the listing.\"); \r\n\r\n        listings[index] = listings[listings.length - 1];\r\n        listings.pop();\r\n    }\r\n}\r\n",
  "sourcePath": "C:/Users/Ankit Kumar/Desktop/Hack/XTech/contracts/Market.sol",
  "compiler": {
    "name": "solc",
    "version": "0.8.20+commit.a1b79de6.Emscripten.clang"
  },
  "schemaVersion": "2.0.1",
  "updatedAt": "2024-10-06T20:06:08.471Z"
}