{
  "contractName": "RealEstateAsset",
  "abi": [
    {
      "inputs": [
        {
          "internalType": "address",
          "name": "digitalIdentity_",
          "type": "address"
        }
      ],
      "stateMutability": "nonpayable",
      "type": "constructor"
    },
    {
      "inputs": [
        {
          "internalType": "address",
          "name": "sender",
          "type": "address"
        },
        {
          "internalType": "uint256",
          "name": "tokenId",
          "type": "uint256"
        },
        {
          "internalType": "address",
          "name": "owner",
          "type": "address"
        }
      ],
      "name": "TRC721IncorrectOwner",
      "type": "error"
    },
    {
      "inputs": [
        {
          "internalType": "address",
          "name": "operator",
          "type": "address"
        },
        {
          "internalType": "uint256",
          "name": "tokenId",
          "type": "uint256"
        }
      ],
      "name": "TRC721InsufficientApproval",
      "type": "error"
    },
    {
      "inputs": [
        {
          "internalType": "address",
          "name": "approver",
          "type": "address"
        }
      ],
      "name": "TRC721InvalidApprover",
      "type": "error"
    },
    {
      "inputs": [
        {
          "internalType": "address",
          "name": "operator",
          "type": "address"
        }
      ],
      "name": "TRC721InvalidOperator",
      "type": "error"
    },
    {
      "inputs": [
        {
          "internalType": "address",
          "name": "owner",
          "type": "address"
        }
      ],
      "name": "TRC721InvalidOwner",
      "type": "error"
    },
    {
      "inputs": [
        {
          "internalType": "address",
          "name": "receiver",
          "type": "address"
        }
      ],
      "name": "TRC721InvalidReceiver",
      "type": "error"
    },
    {
      "inputs": [
        {
          "internalType": "address",
          "name": "sender",
          "type": "address"
        }
      ],
      "name": "TRC721InvalidSender",
      "type": "error"
    },
    {
      "inputs": [
        {
          "internalType": "uint256",
          "name": "tokenId",
          "type": "uint256"
        }
      ],
      "name": "TRC721NonexistentToken",
      "type": "error"
    },
    {
      "anonymous": false,
      "inputs": [
        {
          "indexed": true,
          "internalType": "address",
          "name": "owner",
          "type": "address"
        },
        {
          "indexed": true,
          "internalType": "address",
          "name": "approved",
          "type": "address"
        },
        {
          "indexed": true,
          "internalType": "uint256",
          "name": "tokenId",
          "type": "uint256"
        }
      ],
      "name": "Approval",
      "type": "event"
    },
    {
      "anonymous": false,
      "inputs": [
        {
          "indexed": true,
          "internalType": "address",
          "name": "owner",
          "type": "address"
        },
        {
          "indexed": true,
          "internalType": "address",
          "name": "operator",
          "type": "address"
        },
        {
          "indexed": false,
          "internalType": "bool",
          "name": "approved",
          "type": "bool"
        }
      ],
      "name": "ApprovalForAll",
      "type": "event"
    },
    {
      "anonymous": false,
      "inputs": [
        {
          "indexed": false,
          "internalType": "uint256",
          "name": "tokenId",
          "type": "uint256"
        },
        {
          "indexed": false,
          "internalType": "string",
          "name": "name",
          "type": "string"
        },
        {
          "indexed": false,
          "internalType": "string",
          "name": "location",
          "type": "string"
        },
        {
          "indexed": false,
          "internalType": "uint256",
          "name": "value",
          "type": "uint256"
        }
      ],
      "name": "AssetCreated",
      "type": "event"
    },
    {
      "anonymous": false,
      "inputs": [
        {
          "indexed": true,
          "internalType": "address",
          "name": "from",
          "type": "address"
        },
        {
          "indexed": true,
          "internalType": "address",
          "name": "to",
          "type": "address"
        },
        {
          "indexed": true,
          "internalType": "uint256",
          "name": "tokenId",
          "type": "uint256"
        }
      ],
      "name": "Transfer",
      "type": "event"
    },
    {
      "inputs": [],
      "name": "_baseURI",
      "outputs": [
        {
          "internalType": "string",
          "name": "",
          "type": "string"
        }
      ],
      "stateMutability": "view",
      "type": "function"
    },
    {
      "inputs": [],
      "name": "_digitalIdentity",
      "outputs": [
        {
          "internalType": "contract DigitalIdentity",
          "name": "",
          "type": "address"
        }
      ],
      "stateMutability": "view",
      "type": "function"
    },
    {
      "inputs": [
        {
          "internalType": "address",
          "name": "to_",
          "type": "address"
        },
        {
          "internalType": "uint256",
          "name": "tokenId",
          "type": "uint256"
        }
      ],
      "name": "approve",
      "outputs": [],
      "stateMutability": "nonpayable",
      "type": "function"
    },
    {
      "inputs": [
        {
          "internalType": "uint256",
          "name": "",
          "type": "uint256"
        }
      ],
      "name": "assets",
      "outputs": [
        {
          "internalType": "string",
          "name": "name",
          "type": "string"
        },
        {
          "internalType": "string",
          "name": "location",
          "type": "string"
        },
        {
          "internalType": "uint256",
          "name": "value",
          "type": "uint256"
        }
      ],
      "stateMutability": "view",
      "type": "function"
    },
    {
      "inputs": [
        {
          "internalType": "address",
          "name": "owner",
          "type": "address"
        }
      ],
      "name": "balanceOf",
      "outputs": [
        {
          "internalType": "uint256",
          "name": "",
          "type": "uint256"
        }
      ],
      "stateMutability": "view",
      "type": "function"
    },
    {
      "inputs": [
        {
          "internalType": "string",
          "name": "name",
          "type": "string"
        },
        {
          "internalType": "string",
          "name": "location",
          "type": "string"
        },
        {
          "internalType": "uint256",
          "name": "value",
          "type": "uint256"
        }
      ],
      "name": "createAsset",
      "outputs": [],
      "stateMutability": "nonpayable",
      "type": "function"
    },
    {
      "inputs": [],
      "name": "digitalIdentity",
      "outputs": [
        {
          "internalType": "contract DigitalIdentity",
          "name": "",
          "type": "address"
        }
      ],
      "stateMutability": "view",
      "type": "function"
    },
    {
      "inputs": [
        {
          "internalType": "uint256",
          "name": "tokenId",
          "type": "uint256"
        }
      ],
      "name": "getApproved",
      "outputs": [
        {
          "internalType": "address",
          "name": "",
          "type": "address"
        }
      ],
      "stateMutability": "view",
      "type": "function"
    },
    {
      "inputs": [
        {
          "internalType": "address",
          "name": "owner",
          "type": "address"
        },
        {
          "internalType": "address",
          "name": "operator",
          "type": "address"
        }
      ],
      "name": "isApprovedForAll",
      "outputs": [
        {
          "internalType": "bool",
          "name": "",
          "type": "bool"
        }
      ],
      "stateMutability": "view",
      "type": "function"
    },
    {
      "inputs": [],
      "name": "name",
      "outputs": [
        {
          "internalType": "string",
          "name": "",
          "type": "string"
        }
      ],
      "stateMutability": "view",
      "type": "function"
    },
    {
      "inputs": [],
      "name": "nextTokenId",
      "outputs": [
        {
          "internalType": "uint256",
          "name": "",
          "type": "uint256"
        }
      ],
      "stateMutability": "view",
      "type": "function"
    },
    {
      "inputs": [
        {
          "internalType": "uint256",
          "name": "tokenId",
          "type": "uint256"
        }
      ],
      "name": "ownerOf",
      "outputs": [
        {
          "internalType": "address",
          "name": "",
          "type": "address"
        }
      ],
      "stateMutability": "view",
      "type": "function"
    },
    {
      "inputs": [
        {
          "internalType": "address",
          "name": "from",
          "type": "address"
        },
        {
          "internalType": "address",
          "name": "to",
          "type": "address"
        },
        {
          "internalType": "uint256",
          "name": "tokenId",
          "type": "uint256"
        }
      ],
      "name": "safeTransferFrom",
      "outputs": [],
      "stateMutability": "nonpayable",
      "type": "function"
    },
    {
      "inputs": [
        {
          "internalType": "address",
          "name": "from",
          "type": "address"
        },
        {
          "internalType": "address",
          "name": "to",
          "type": "address"
        },
        {
          "internalType": "uint256",
          "name": "tokenId",
          "type": "uint256"
        },
        {
          "internalType": "bytes",
          "name": "data",
          "type": "bytes"
        }
      ],
      "name": "safeTransferFrom",
      "outputs": [],
      "stateMutability": "nonpayable",
      "type": "function"
    },
    {
      "inputs": [
        {
          "internalType": "address",
          "name": "operator",
          "type": "address"
        },
        {
          "internalType": "bool",
          "name": "approved",
          "type": "bool"
        }
      ],
      "name": "setApprovalForAll",
      "outputs": [],
      "stateMutability": "nonpayable",
      "type": "function"
    },
    {
      "inputs": [
        {
          "internalType": "bytes4",
          "name": "interfaceId",
          "type": "bytes4"
        }
      ],
      "name": "supportsInterface",
      "outputs": [
        {
          "internalType": "bool",
          "name": "",
          "type": "bool"
        }
      ],
      "stateMutability": "view",
      "type": "function"
    },
    {
      "inputs": [],
      "name": "symbol",
      "outputs": [
        {
          "internalType": "string",
          "name": "",
          "type": "string"
        }
      ],
      "stateMutability": "view",
      "type": "function"
    },
    {
      "inputs": [
        {
          "internalType": "uint256",
          "name": "tokenId",
          "type": "uint256"
        }
      ],
      "name": "tokenURI",
      "outputs": [
        {
          "internalType": "string",
          "name": "",
          "type": "string"
        }
      ],
      "stateMutability": "view",
      "type": "function"
    },
    {
      "inputs": [
        {
          "internalType": "address",
          "name": "from",
          "type": "address"
        },
        {
          "internalType": "address",
          "name": "to",
          "type": "address"
        },
        {
          "internalType": "uint256",
          "name": "tokenId",
          "type": "uint256"
        }
      ],
      "name": "transferFrom",
      "outputs": [],
      "stateMutability": "nonpayable",
      "type": "function"
    }
  ],
  "bytecode": "0x608060405234801562000010575f80fd5b5060405162001d0a38038062001d0a8339810160408190526200003391620000d1565b6040518060400160405280600f81526020016e1499585b115cdd185d19505cdcd95d608a1b8152506040518060400160405280600381526020016252454160e81b815250828260019081620000899190620001a0565b506002620000988382620001a0565b505f80546001600160a01b039283166001600160a01b031991821617909155600880549590921694169390931790925550620002689050565b5f60208284031215620000e2575f80fd5b81516001600160a01b0381168114620000f9575f80fd5b9392505050565b634e487b7160e01b5f52604160045260245ffd5b600181811c908216806200012957607f821691505b6020821081036200014857634e487b7160e01b5f52602260045260245ffd5b50919050565b601f8211156200019b575f81815260208120601f850160051c81016020861015620001765750805b601f850160051c820191505b81811015620001975782815560010162000182565b5050505b505050565b81516001600160401b03811115620001bc57620001bc62000100565b620001d481620001cd845462000114565b846200014e565b602080601f8311600181146200020a575f8415620001f25750858301515b5f19600386901b1c1916600185901b17855562000197565b5f85815260208120601f198616915b828110156200023a5788860151825594840194600190910190840162000219565b50858210156200025857878501515f19600388901b60f8161c191681555b5050505050600190811b01905550565b611a9480620002765f395ff3fe608060405234801561000f575f80fd5b506004361061011c575f3560e01c806375794a3c116100a9578063c0955c921161006e578063c0955c9214610249578063c87b56dd1461025b578063cf35bdd01461026e578063e985e9c514610290578063f2bdc035146102a3575f80fd5b806375794a3c146101ff57806395d89b4114610208578063a22cb46514610210578063a8b527bb14610223578063b88d4fde14610236575f80fd5b806323b872dd116100ef57806323b872dd1461019d57806342842e0e146101b05780636352211e146101c357806370a08231146101d6578063743976a0146101f7575f80fd5b806301ffc9a71461012057806306fdde0314610148578063081812fc1461015d578063095ea7b314610188575b5f80fd5b61013361012e366004611465565b6102b6565b60405190151581526020015b60405180910390f35b610150610307565b60405161013f91906114cd565b61017061016b3660046114df565b610397565b6040516001600160a01b03909116815260200161013f565b61019b610196366004611511565b6103be565b005b61019b6101ab366004611539565b6104e7565b61019b6101be366004611539565b6104f7565b6101706101d13660046114df565b610502565b6101e96101e4366004611572565b61050c565b60405190815260200161013f565b610150610551565b6101e9600a5481565b6101506105dd565b61019b61021e366004611598565b6105ec565b600854610170906001600160a01b031681565b61019b610244366004611654565b6105fb565b5f54610170906001600160a01b031681565b6101506102693660046114df565b610607565b61028161027c3660046114df565b6106ed565b60405161013f939291906116cb565b61013361029e366004611700565b61081a565b61019b6102b136600461174f565b610847565b5f6001600160e01b031982166380ac58cd60e01b14806102e657506001600160e01b03198216635b5e139f60e01b145b8061030157506301ffc9a760e01b6001600160e01b03198316145b92915050565b606060018054610316906117b7565b80601f0160208091040260200160405190810160405280929190818152602001828054610342906117b7565b801561038d5780601f106103645761010080835404028352916020019161038d565b820191905f5260205f20905b81548152906001019060200180831161037057829003601f168201915b5050505050905090565b5f6103a1826109ce565b505f828152600660205260409020546001600160a01b0316610301565b335f5460405163b9209e3360e01b81526001600160a01b0383811660048301528592169063b9209e3390602401602060405180830381865afa158015610406573d5f803e3d5ffd5b505050506040513d601f19601f8201168201806040525081019061042a91906117ef565b61044f5760405162461bcd60e51b81526004016104469061180a565b60405180910390fd5b5f5460405163b9209e3360e01b81526001600160a01b0383811660048301529091169063b9209e3390602401602060405180830381865afa158015610496573d5f803e3d5ffd5b505050506040513d601f19601f820116820180604052508101906104ba91906117ef565b6104d65760405162461bcd60e51b815260040161044690611841565b6104e1848433610a06565b50505050565b6104f2838383610a13565b505050565b6104f2838383610baf565b5f610301826109ce565b5f6001600160a01b03821661053657604051631e3e8f4160e01b81525f6004820152602401610446565b506001600160a01b03165f9081526005602052604090205490565b6003805461055e906117b7565b80601f016020809104026020016040519081016040528092919081815260200182805461058a906117b7565b80156105d55780601f106105ac576101008083540402835291602001916105d5565b820191905f5260205f20905b8154815290600101906020018083116105b857829003601f168201915b505050505081565b606060028054610316906117b7565b6105f7338383610ce1565b5050565b6104e184848484610d7f565b6060610612826109ce565b505f60038054610621906117b7565b80601f016020809104026020016040519081016040528092919081815260200182805461064d906117b7565b80156106985780601f1061066f57610100808354040283529160200191610698565b820191905f5260205f20905b81548152906001019060200180831161067b57829003601f168201915b505050505090505f8151116106bb5760405180602001604052805f8152506106e6565b806106c584610ea8565b6040516020016106d6929190611878565b6040516020818303038152906040525b9392505050565b60096020525f9081526040902080548190610707906117b7565b80601f0160208091040260200160405190810160405280929190818152602001828054610733906117b7565b801561077e5780601f106107555761010080835404028352916020019161077e565b820191905f5260205f20905b81548152906001019060200180831161076157829003601f168201915b505050505090806001018054610793906117b7565b80601f01602080910402602001604051908101604052809291908181526020018280546107bf906117b7565b801561080a5780601f106107e15761010080835404028352916020019161080a565b820191905f5260205f20905b8154815290600101906020018083116107ed57829003601f168201915b5050505050908060020154905083565b6001600160a01b039182165f90815260076020908152604080832093909416825291909152205460ff1690565b60085460405163b9209e3360e01b81523360048201526001600160a01b039091169063b9209e3390602401602060405180830381865afa15801561088d573d5f803e3d5ffd5b505050506040513d601f19601f820116820180604052508101906108b191906117ef565b61090f5760405162461bcd60e51b815260206004820152602960248201527f4f6e6c7920766572696669656420656e7469746965732063616e206372656174604482015268329030b9b9b2ba399760b91b6064820152608401610446565b600a80545f918261091f836118a6565b909155506040805160608101825286815260208082018790528183018690525f84815260099091529190912081519293509091819061095e908261190f565b5060208201516001820190610973908261190f565b506040820151816002015590505061098b3382610f38565b7f2c519ae3d6e8d3d4bd204e7b996c92664c4b43b556af872562fb61fb322cdcf2818585856040516109c094939291906119cb565b60405180910390a150505050565b5f818152600460205260408120546001600160a01b031680610301576040516311b0ad1960e01b815260048101849052602401610446565b6104f28383836001610f99565b5f5460405163b9209e3360e01b81526001600160a01b0380861660048301528592859291169063b9209e3390602401602060405180830381865afa158015610a5d573d5f803e3d5ffd5b505050506040513d601f19601f82011682018060405250810190610a8191906117ef565b610a9d5760405162461bcd60e51b81526004016104469061180a565b5f5460405163b9209e3360e01b81526001600160a01b0383811660048301529091169063b9209e3390602401602060405180830381865afa158015610ae4573d5f803e3d5ffd5b505050506040513d601f19601f82011682018060405250810190610b0891906117ef565b610b245760405162461bcd60e51b815260040161044690611841565b6001600160a01b038416610b4d57604051633081bfe160e01b81525f6004820152602401610446565b5f610b5985853361109d565b9050856001600160a01b0316816001600160a01b031614610ba757604051638eab043b60e01b81526001600160a01b0380881660048301526024820186905282166044820152606401610446565b505050505050565b5f5460405163b9209e3360e01b81526001600160a01b0380861660048301528592859291169063b9209e3390602401602060405180830381865afa158015610bf9573d5f803e3d5ffd5b505050506040513d601f19601f82011682018060405250810190610c1d91906117ef565b610c395760405162461bcd60e51b81526004016104469061180a565b5f5460405163b9209e3360e01b81526001600160a01b0383811660048301529091169063b9209e3390602401602060405180830381865afa158015610c80573d5f803e3d5ffd5b505050506040513d601f19601f82011682018060405250810190610ca491906117ef565b610cc05760405162461bcd60e51b815260040161044690611841565b610cda85858560405180602001604052805f8152506105fb565b5050505050565b6001600160a01b038216610d135760405163b72ca29b60e01b81526001600160a01b0383166004820152602401610446565b6001600160a01b038381165f81815260076020908152604080832094871680845294825291829020805460ff191686151590811790915591519182527f17307eab39ab6107e8899845ad3d59bd9653f200f220920489ca2b5937696c31910160405180910390a3505050565b5f5460405163b9209e3360e01b81526001600160a01b0380871660048301528692869291169063b9209e3390602401602060405180830381865afa158015610dc9573d5f803e3d5ffd5b505050506040513d601f19601f82011682018060405250810190610ded91906117ef565b610e095760405162461bcd60e51b81526004016104469061180a565b5f5460405163b9209e3360e01b81526001600160a01b0383811660048301529091169063b9209e3390602401602060405180830381865afa158015610e50573d5f803e3d5ffd5b505050506040513d601f19601f82011682018060405250810190610e7491906117ef565b610e905760405162461bcd60e51b815260040161044690611841565b610e9b8686866104e7565b610ba7338787878761118f565b60605f610eb4836112ae565b60010190505f8167ffffffffffffffff811115610ed357610ed36115cd565b6040519080825280601f01601f191660200182016040528015610efd576020820181803683370190505b5090508181016020015b5f19016f181899199a1a9b1b9c1cb0b131b232b360811b600a86061a8153600a8504945084610f0757509392505050565b6001600160a01b038216610f6157604051633081bfe160e01b81525f6004820152602401610446565b5f610f6d83835f61109d565b90506001600160a01b038116156104f2576040516351b2bb9d60e11b81525f6004820152602401610446565b8080610fad57506001600160a01b03821615155b1561106e575f610fbc846109ce565b90506001600160a01b03831615801590610fe85750826001600160a01b0316816001600160a01b031614155b8015610ffb5750610ff9818461081a565b155b156110245760405163b7664c4960e01b81526001600160a01b0384166004820152602401610446565b811561106c5783856001600160a01b0316826001600160a01b03167f8c5be1e5ebec7d5bd14f71427d1e84f3dd0314c0f7b2291e5b200ac8c7c3b92560405160405180910390a45b505b50505f90815260066020526040902080546001600160a01b0319166001600160a01b0392909216919091179055565b5f828152600460205260408120546001600160a01b03908116908316156110c9576110c9818486611385565b6001600160a01b03811615611103576110e45f855f80610f99565b6001600160a01b0381165f90815260056020526040902080545f190190555b6001600160a01b03851615611131576001600160a01b0385165f908152600560205260409020805460010190555b5f8481526004602052604080822080546001600160a01b0319166001600160a01b0389811691821790925591518793918516917fddf252ad1be2c89b69c2b068fc378daa952ba7f163c4a11628f55a4df523b3ef91a4949350505050565b6001600160a01b0383163b15610cda57604051630a2ebf0f60e31b81526001600160a01b03841690635175f878906111d1908890889087908790600401611a07565b6020604051808303815f875af192505050801561120b575060408051601f3d908101601f1916820190925261120891810190611a43565b60015b611272573d808015611238576040519150601f19603f3d011682016040523d82523d5f602084013e61123d565b606091505b5080515f0361126a57604051633081bfe160e01b81526001600160a01b0385166004820152602401610446565b805181602001fd5b6001600160e01b03198116630a2ebf0f60e31b14610ba757604051633081bfe160e01b81526001600160a01b0385166004820152602401610446565b5f8072184f03e93ff9f4daa797ed6e38ed64bf6a1f0160401b83106112ec5772184f03e93ff9f4daa797ed6e38ed64bf6a1f0160401b830492506040015b6d04ee2d6d415b85acef81000000008310611318576d04ee2d6d415b85acef8100000000830492506020015b662386f26fc10000831061133657662386f26fc10000830492506010015b6305f5e100831061134e576305f5e100830492506008015b612710831061136257612710830492506004015b60648310611374576064830492506002015b600a83106103015760010192915050565b6113908383836113e9565b6104f2576001600160a01b0383166113be576040516311b0ad1960e01b815260048101829052602401610446565b60405163c4526c9560e01b81526001600160a01b038316600482015260248101829052604401610446565b5f6001600160a01b038316158015906114455750826001600160a01b0316846001600160a01b031614806114225750611422848461081a565b8061144557505f828152600660205260409020546001600160a01b038481169116145b949350505050565b6001600160e01b031981168114611462575f80fd5b50565b5f60208284031215611475575f80fd5b81356106e68161144d565b5f5b8381101561149a578181015183820152602001611482565b50505f910152565b5f81518084526114b9816020860160208601611480565b601f01601f19169290920160200192915050565b602081525f6106e660208301846114a2565b5f602082840312156114ef575f80fd5b5035919050565b80356001600160a01b038116811461150c575f80fd5b919050565b5f8060408385031215611522575f80fd5b61152b836114f6565b946020939093013593505050565b5f805f6060848603121561154b575f80fd5b611554846114f6565b9250611562602085016114f6565b9150604084013590509250925092565b5f60208284031215611582575f80fd5b6106e6826114f6565b8015158114611462575f80fd5b5f80604083850312156115a9575f80fd5b6115b2836114f6565b915060208301356115c28161158b565b809150509250929050565b634e487b7160e01b5f52604160045260245ffd5b5f67ffffffffffffffff808411156115fb576115fb6115cd565b604051601f8501601f19908116603f01168101908282118183101715611623576116236115cd565b8160405280935085815286868601111561163b575f80fd5b858560208301375f602087830101525050509392505050565b5f805f8060808587031215611667575f80fd5b611670856114f6565b935061167e602086016114f6565b925060408501359150606085013567ffffffffffffffff8111156116a0575f80fd5b8501601f810187136116b0575f80fd5b6116bf878235602084016115e1565b91505092959194509250565b606081525f6116dd60608301866114a2565b82810360208401526116ef81866114a2565b915050826040830152949350505050565b5f8060408385031215611711575f80fd5b61171a836114f6565b9150611728602084016114f6565b90509250929050565b5f82601f830112611740575f80fd5b6106e6838335602085016115e1565b5f805f60608486031215611761575f80fd5b833567ffffffffffffffff80821115611778575f80fd5b61178487838801611731565b94506020860135915080821115611799575f80fd5b506117a686828701611731565b925050604084013590509250925092565b600181811c908216806117cb57607f821691505b6020821081036117e957634e487b7160e01b5f52602260045260245ffd5b50919050565b5f602082840312156117ff575f80fd5b81516106e68161158b565b6020808252601b908201527f546865206f776e6572206d7573742062652076657269666965642e0000000000604082015260600190565b6020808252601f908201527f54686520726563697069656e74206d7573742062652076657269666965642e00604082015260600190565b5f8351611889818460208801611480565b83519083019061189d818360208801611480565b01949350505050565b5f600182016118c357634e487b7160e01b5f52601160045260245ffd5b5060010190565b601f8211156104f2575f81815260208120601f850160051c810160208610156118f05750805b601f850160051c820191505b81811015610ba7578281556001016118fc565b815167ffffffffffffffff811115611929576119296115cd565b61193d8161193784546117b7565b846118ca565b602080601f831160018114611970575f84156119595750858301515b5f19600386901b1c1916600185901b178555610ba7565b5f85815260208120601f198616915b8281101561199e5788860151825594840194600190910190840161197f565b50858210156119bb57878501515f19600388901b60f8161c191681555b5050505050600190811b01905550565b848152608060208201525f6119e360808301866114a2565b82810360408401526119f581866114a2565b91505082606083015295945050505050565b6001600160a01b03858116825284166020820152604081018390526080606082018190525f90611a39908301846114a2565b9695505050505050565b5f60208284031215611a53575f80fd5b81516106e68161144d56fea264697066735822122041766d17fbd2a7e276cfa33737349b42e62ceefb11d65a8b8012f89fb922f1ff64736f6c63430008140033",
  "source": "// SPDX-License-Identifier: MIT\r\npragma solidity >=0.8.18 <0.8.28;\r\n\r\nimport {TRC721} from \"./trc721/TRC721.sol\";\r\nimport {DigitalIdentity} from \"./DigitalIdentity.sol\";\r\n\r\ncontract RealEstateAsset is TRC721 {\r\n    DigitalIdentity public digitalIdentity;\r\n\r\n    struct Asset {\r\n        string name;\r\n        string location;\r\n        uint256 value;\r\n    }\r\n\r\n    mapping(uint256 => Asset) public assets;\r\n    uint256 public nextTokenId;\r\n\r\n    event AssetCreated(uint256 tokenId, string name, string location, uint256 value);\r\n\r\n    constructor(address digitalIdentity_) TRC721(\"RealEstateAsset\", \"REA\", digitalIdentity_) {\r\n        digitalIdentity = DigitalIdentity(digitalIdentity_);\r\n    }\r\n\r\n    function createAsset(string memory name, string memory location, uint256 value) public {\r\n        require(digitalIdentity.isVerified(msg.sender), \"Only verified entities can create assets.\");\r\n        \r\n        uint256 tokenId = nextTokenId++;\r\n        assets[tokenId] = Asset(name, location, value);\r\n        _mint(msg.sender, tokenId);\r\n        \r\n        emit AssetCreated(tokenId, name, location, value);\r\n    }\r\n    \r\n    function transferFrom(address from, address to, uint256 tokenId) public override {\r\n        super.transferFrom(from, to, tokenId);\r\n    }\r\n\r\n    function safeTransferFrom(address from, address to, uint256 tokenId) public override {\r\n        super.safeTransferFrom(from, to, tokenId);\r\n    }\r\n\r\n    function safeTransferFrom(address from, address to, uint256 tokenId, bytes memory data) public override {\r\n        super.safeTransferFrom(from, to, tokenId, data);\r\n    }\r\n}",
  "sourcePath": "C:/Users/Ankit Kumar/Desktop/Hack/XTech/contracts/RealEstateAsset.sol",
  "compiler": {
    "name": "solc",
    "version": "0.8.20+commit.a1b79de6.Emscripten.clang"
  },
  "schemaVersion": "2.0.1",
  "updatedAt": "2024-10-06T20:06:08.467Z"
}